:1000000000308A00D8280000FF00030E8301A600FC
:100010007F08A5000A08AD008A01A50E0408A70004
:100020002008A8002108A9002208AA002308AB0084
:100030002408AC00831383128B1E20280B1933284D
:10004000270884002808A0002908A1002A08A20087
:100050002B08A3002C08A4002D088A00260E83007C
:10006000FF0E7F0E09008A1140280A108A100A111B
:1000700082070D340A3448346F346C3461340034F0
:10008000AF0A2F080C3C031847282E14AF010B11A0
:100090008A1120280830B702031C5A283730840000
:1000A00083130310800C000803195A2858280000F5
:1000B000800B57280034B201B301B7013108B600F4
:1000C0000330B900E830B8001030BA00A001A30135
:1000D000B70CB60C031C72283808A0070318A30A33
:1000E0003908A307A30CA00CA20CA10CBA0B68281A
:1000F0002208B7002108B6003708B9003608B80052
:10010000BB016430BA00A101A201A001A3013B0818
:10011000031D8D283A080319A7281030BC000310CE
:10012000B80DB90DA00DA30D3B082302031D9A289D
:100130003A082002031CA3283A08A002031CA303C8
:100140003B08A3020314A10DA20DBC0B8F282208AB
:10015000B3002108B200831605108312051033087E
:10016000B600B60AB6030319B928FF30B7004A2013
:10017000B2283208B7004A208316051083120514EE
:100180003208E83CB4000330B5003308031C330FD9
:10019000B5023508B600B60AB6030319D328FF30F6
:1001A000B7004A20CC283408B7004A208A116C29AD
:1001B000840183131F308305713083168F000F086D
:1001C0009B110C309900A230980090308312980057
:1001D00003171F109F101F119F1103131F130030CF
:1001E00003179E0099019A0183169E0183129B01B9
:1001F00003138D12AF0103171F109F101F119F11C2
:1002000003131F13003003179E0003131F109412D3
:1002100083168713061606130130831294000030EC
:10022000831694000108C7390838810083129001B1
:100230000030A10092000030831692008312031751
:1002400099019A0183169E0183129B0103138D125B
:10025000713083168F000F080108C03905388100FE
:100260008312AE142E100130B000B10131083520D8
:10027000B10AA00020080C1E3B299900063031026B
:10028000031D362983160710831207108316871063
:10029000831287148316071083120714831687109E
:1002A000831287108B16C0308B042E1C6929AE1C5C
:1002B0006229B00A3008633C031861296330B0003A
:1002C000AE106829B003300F68290130B000AE14B9
:0C02D0002E103008B1005B285529630097
:02400E00C43FAD
:00000001FF
;PIC16F689
