:1000000000308A00E1290000FF00030E8301A600F2
:100010007F08A5000A08AD008A01A50E0408A70004
:100020002008A8002108A9002208AA002308AB0084
:100030002408AC00831383128B1E20280B1933284D
:10004000270884002808A0002908A1002A08A20087
:100050002B08A3002C08A4002D088A00260E83007C
:10006000FF0E7F0E09008A113528AF0A2F08023CC7
:1000700003183C28AE14AF01B00A0B118A112028D6
:100080000830BC02031C50283C308400831303104A
:10009000800C0008031950284E280000800B4D28C2
:1000A000003483160512831205120230B500F830B1
:1000B000BC004020B50B5728831605163530831237
:1000C000A000A00B61280230B500D030BC00402059
:1000D000B50B65288316051683120034B601360861
:1000E000073C031C8F2883160512831205127828FB
:1000F00079280310B50C03187F28051280280516EF
:100100008316051227308312A000A00B85288828AB
:10011000831605168B288C288312B60A6F280034A4
:10012000B5013508073C031CB2288316051283125B
:1001300005129A289B288316051605308312A00005
:10014000A00BA028831605168312051AA9280310F0
:10015000AA280314B60C2730A000A00BAD28B028A5
:10016000B50A91283608A1000034B4015120CC30E2
:10017000B5006E204430B5006E2083160512831240
:10018000051690205120CC30B5006E20BE30B50051
:100190006E2090202108B4000310340CB601B50085
:1001A0008E30A0003608A1003508A200A301A108E6
:1001B000031DE4282208A100A2010830A002A10822
:1001C000031DE428A001EC280310A11BEB28A20DBD
:1001D000A10DA003E428A11300348E30A000340840
:1001E000A0023508A2003608A100A217A008031932
:1001F00004290310A208031D0029A10803190429DA
:10020000A20CA10CA00BF928B51F0B29A109A2096A
:10021000A10A0319A20A00343930840083130008AC
:1002200003191F290230A100A001A00B1529A10B61
:1002300014299730A000A00B1B29800B1229003431
:100240003908A1013802031828293808A0003429E8
:10025000A0010830BA00B80DA00D3908200203181B
:10026000A000A10DBA0B2B2900343608B8000A30C3
:10027000B9002021210EB700F030B7053608B800CC
:100280000A30B90020212008B7073708A100003440
:100290003408B60035212108F039A000A00E0F3037
:1002A000A0052008F0388700071207163408B600AA
:1002B000352121080F39F0388700871287168A11F7
:1002C000362AB501B601BA013408B9000330BC00C2
:1002D000E830BB001030BD00A001A301BA0CB90C7E
:1002E000031C78293B08A0070318A30A3C08A307AE
:1002F000A30CA00CA20CA10CBD0B6E292208BA0005
:100300002108B9003A08BC003908BB00BE016430BE
:10031000BD00A101A201A001A3013E08031D932974
:100320003D080319AD291030BF000310BB0DBC0DF3
:10033000A00DA30D3E082302031DA0293D082002A5
:10034000031CA9293D08A002031CA3033E08A30225
:100350000314A10DA20DBF0B95292208B600210898
:10036000B50083168512831285123608B900B90AC2
:10037000B9030319BF29FF30BC004020B829350854
:10038000BC00402083168512831285163508E83C90
:10039000B9000330BA003608031C360FBA023A0817
:1003A000BB00BB0ABB030319D929FF30BC004020A6
:1003B000D2293908BC0040200130B9000C218A1133
:1003C0005B2A840183131F308305713083168F00ED
:1003D0000F0883121F130030831691000730831219
:1003E00099002E10AE102E11AF01B0016430B30091
:1003F0001F1300308316910083121F1090010730E5
:1004000099008316050806308312A000A00B062A67
:10041000000019088C118316990171308F000F08A4
:100420000108C03905388100103085000030870090
:1004300083122E15AE100130B100B5202308B7008D
:100440002208B6002108B5002008B400ED202108DC
:10045000B2008B16C0308B040430B400FA30B900FF
:100460000C21B40B2E2A3208B4004829AE1C492AAC
:100470002E1D432AB10A3108283C0318422A28308D
:10048000B1002E11482AB103310F482AB1012E15AF
:10049000AE102E1C582AB5202308B7002208B6003B
:1004A0002108B5002008B400ED202108B2002E106C
:0A04B0003108B4006129332A63000B
:02400E00C43FAD
:00000001FF
;PIC16F688
